:020000040800F2
:10000000A80A002035020008D92600083324000879
:1000100071250008A52100089F3600080000000097
:10002000000000000000000000000000293100086E
:100030005122000800000000992A00087D320008C3
:100040004F0200084F0200084F020008712E0008FE
:100050004F0200084F0200084F0200084F0200083C
:100060004F0200084F0200084F0200084F0200082C
:100070004F0200084F0200084F0200084F0200081C
:100080004F0200084F0200084F0200084F0200080C
:100090004F0200084F0200084F0200084F020008FC
:1000A0004F0200084F0200084F0200084F020008EC
:1000B0004F0200084F0200084F0200084F020008DC
:1000C0004F0200084F0200084F0200084F020008CC
:1000D0004F020008E1320008693300084F020008AF
:1000E0004F0200084F0200084F02000800F002F81B
:1000F00000F090F80AA090E8000C82448344AAF132
:100100000107DA4501D100F085F8AFF2090EBAE82F
:100110000F0013F0010F18BFFB1A43F0010318473B
:10012000604B0000804B0000103A24BF78C878C1B3
:10013000FAD8520724BF30C830C144BF04680C60ED
:10014000704700000023002400250026103A28BF35
:1001500078C1FBD8520728BF30C148BF0B60704739
:100160006E2900F00884702900F07F87662904F06A
:10017000C080652904F0BD80672904F0BA80612938
:10018000AFF3008003681B0A28BF41F08001692992
:1001900000F0F680642900F0F380752900F0F0800B
:1001A0006F2900F00C87782900F04B87E92900F0CF
:1001B000A786E42900F0A486F52900F0A186EF299E
:1001C00000F00987F82900F04A870368DB0928BF97
:1001D00041F08001632900F01686732900F01B8628
:1001E000E32901F02D80F32901F0328000207047CF
:1001F0001FB500F089FF04000020002103F03AFE43
:10020000401C60600020002103F01EFEE0601FBD66
:1002100010B510BD01F070FA1146FFF7E9FF03F0C9
:10022000A9FC01F097FA03B4FFF7F2FF03BC03F057
:10023000F6FA00000948804709480047FEE7FEE754
:10024000FEE7FEE7FEE7FEE7FEE7FEE7FEE7FEE786
:1002500004480549054A064B7047000081320008F2
:10026000ED000008A8040020A80A0020A80600202D
:10027000A8060020704700001CB50C46064B7B44C6
:1002800069460090204600F09CFD04460020694627
:1002900000F0AAFD20461CBD670B00000FB4044906
:1002A00010B503AA029800F0BBFD10BC5DF814FB6A
:1002B000340000200FB41CB5084B06AA7B446946E5
:1002C0000090059800F07DFD04460020694600F08E
:1002D0008BFD20461CBC5DF814FB0000290B0000C0
:1002E00070B5044685690068C10601D5302600E076
:1002F0002026C00707D070BDD4E9012130469047C1
:10030000206A401C20626D1EF6D570BD70B5044693
:1003100085690078C00707D170BDD4E9012120208C
:100320009047206A401C20626D1EF6D570BD70B5E6
:100330000C460546012A05D02878800600D5EA69D2
:10034000002302E0012305E05B1C934202D2E05C43
:100350000028F9D1A869E618C01AA861286A1844CB
:1003600028622846FFF7BCFF04E0D5E9012114F814
:10037000010B9047B442F8D32846FFF7C7FF70BD82
:100380002DE9F0410646002410687529314616A56E
:1003900010D000F085FA002802DA404213A507E0E9
:1003A00031688A0701D512A502E0490704D511A5D5
:1003B000012401E000F07DFA00210A2206F1240761
:1003C00009E0B0FBF2FCB0FBF2F302FB1C003030A2
:1003D00078541846491C0028F3D123462A46304653
:1003E000BDE8F04100F06EBA000000002D000000F2
:1003F0002B000000200000002DE9F05F8946044634
:100400004FF0000ADFF874B1FB44C0F820A020468A
:10041000E1688847002874D0252806D0D4E9012156
:100420009047206A401C2062F1E700265F46204684
:10043000E16888472028054607DB312D05D2781969
:1004400010F8200C08B10643F1E7B00701D526F0FB
:100450000406C4F81CA00027C4F818A02A2D09D04F
:10046000284603F0D5F938B304EB8708303DC8F8C7
:10047000185019E059F8041B204604EB87029161DB
:10048000E1688847012F054618D1E069002820DA85
:1004900026F020061DE0D8F8180000EB800005EBE0
:1004A00040003038C8F818002046E1688847054603
:1004B00003F0AEF90028EED1012F0AD02E2D08D17D
:1004C0002046E16888477F1C0546022F46F020063B
:1004D000C4DBA069002803DA404246F00106A061AF
:1004E000F00701D026F010066C2D0BD0682D09D036
:1004F0004C2D39D06A2D35D0742D35D07A2D33D08E
:1005000016E038E0E1682F4620468847B8420546A5
:1005100009D16C2F26D04FF48060E1680643204655
:100520008847054604E06C2F1AD04FF480700643CC
:100530000DB3A5F14100192802D8203546F4006614
:100540004A462946204626604E46FFF709FE80B1FE
:1005500001280BD0F61D26F0070000F1080956E728
:100560004020E4E78020D8E70020D6E706F1040920
:100570004DE7284652E7206ABDE8F09F9D470000FE
:100580000FB400B58DB010A9099000910B904FF0F9
:10059000FF300A9000200C900648784406900648E8
:1005A00078446A4607900F9909A800F07DFD0DB0C8
:1005B0005DF814FB2B0B0000430B00002DE9FF5FDF
:1005C0001D464FF0FF3B91464FF000085F46D5E9CE
:1005D0000146A96901987F1C8847296A8246884795
:1005E0000028F6D1BAF1FF3F0CD0002E24F4C064ED
:1005F00019DD600614D5BAF12B0F09D0BAF12D0F11
:100600000ED103E0584604B0BDE8F09F44F4806486
:10061000A96901987F1C8847761E8246002E02DD5C
:10062000BAF1300F03D0B9F1000F26D032E0A9693A
:10063000761E01987F1C44F400748847002E824681
:1006400005DDBAF1780F06D0BAF1580F03D0B9F131
:10065000000F10D01EE0B9F1000F02D0B9F1100F59
:1006600018D1A969761E01987F1C24F4007488476C
:100670008246102002E0082000E00A20814609E0BE
:10068000A96908FB0908761E01987F1C44F40074D0
:1006900088478246002E05DD4946504600F0F0FCB2
:1006A0000028EDDAE96901988847A00502D46FF0C7
:1006B0000100A8E7E00725D1600613D5600502D543
:1006C000C8F1000000E0404629680A1D2A60096858
:1006D000220501D5087015E0220701D5088011E038
:1006E00008600FE02868011D29600068210502D517
:1006F00080F8008006E0210702D5A0F8008001E024
:10070000C0F8008038467EE72DE9FF5F4FF0000813
:100710009946144646469169D2E901A7DDF838B0FA
:1007200001988847054659EA0B0005D009E0A16900
:100730000198761C88470546216A28468847002884
:10074000F5D1681C03D05FEACA7005D015E04FF000
:10075000FF3004B0BDE8F09F2068011D2160D0F893
:1007600000800AE05FEACA7001D108F8015BA16964
:10077000761C01987F1E88470546002F1ADD681CED
:1007800018D0B9F1000F0DD0E81705EBD060421179
:1007900020F01F0059F822102A1A0120904001422F
:1007A000E0D107E0BBF1000FDCD12846216A884781
:1007B0000028D7D0E16901988847BBF1000F07D125
:1007C000002E05DD5FEACA7002D1002188F8001012
:1007D000A068B84203DDBBF1000F03D017B16FF082
:1007E0000100B6E73046B4E730B505460B462A4669
:1007F00013F8014B12F8010B08B1A042F8D01CB15C
:10080000002802D06D1CF1E7284630BD10B5431C0E
:1008100002E010F8011B71B18107FAD14FF00132EB
:1008200002C88C1A8C4314EAC211F9D0C01A0A0605
:1008300003D0C01E10BDC01A10BD0A0401D0801E16
:1008400010BD0902FCD0401E10BD4FF0000200B5E3
:10085000134694469646203922BFA0E80C50A0E8E3
:100860000C50B1F12001BFF4F7AF090728BFA0E891
:100870000C5048BF0CC05DF804EB890028BF40F85D
:10088000042B08BF704748BF20F8022B11F0804F9F
:1008900018BF00F8012B70477047704770477047CA
:1008A00009684A0501D540B27047C905FCD500B2B8
:1008B000704709684A0501D5C0B27047C905FCD523
:1008C00080B270472DE9F0470D469946924604469E
:1008D00000F124080168880604D5E06921F01001C0
:1008E000216000E00120A84201DD471B00E0002755
:1008F000A1697A1902EB0900081AA0612078C006E4
:1009000002D42046FFF7ECFC002608E0D4E90121E0
:100910001AF806009047206A401C761C20624E455B
:10092000F4DB2078C0060AD52046FFF7D9FC06E0A4
:10093000D4E9012130209047206A401C2062381EF3
:10094000A7F10107F4DC07E0D4E9012118F805005C
:100950009047206A401C2062281EA5F10105F3DCA7
:100960002046FFF7D3FC2078000602D50220BDE820
:10097000F0870120FBE711680268006A530501D582
:1009800008700AE0D30501D5088006E0130603D5F8
:10099000C217C1E9000200E00860012070477047FB
:1009A0002DE9FF4F0C461E464FF0FF378BB0D2E9C2
:1009B0000001DDF860800A908A46C1F30A5505B946
:1009C0003D46002108464FF00000BAF1000F00F448
:1009D000400005DA00EB80004FF4400101EA5000CE
:1009E0004FEA9059B9F1010F00DDB9460A9850EA73
:1009F0004A000ED044F61050A5F2FF3545432F149F
:100A0000B8F1000F1ED07542291E1EDDC9F100028B
:100A10001CE0B8F1010F4FF0000001D0302103E0DD
:100A2000F24305E02154401CB042FBDB304600227B
:100A3000002121540B99C1F80880C1E900200FB0B2
:100A4000BDE8F08FBD1B6D1CDEE74A4600DA694247
:100A500006A800F0BBFD06AB93E8070003AB83E8F4
:100A6000070050460A9900F0BFFE8DE80700A0F588
:100A700000501F3800900398002D09DD42F21F013D
:100A80004A46084403A90390684601F01EF908E0AD
:100A9000A0F500504A461F3803A90390684601F0AC
:100AA00028F98DE807000004000C03D04FF0FF3058
:100AB000410800E01046B8F1000F03D00022009278
:100AC00015461EE0751E05D400F022FB303262553B
:100AD0006D1EF9D5B3460122084302D000227F1CC7
:100AE00004E02078302801D100227F1E002A0997D7
:100AF00086D01DE0112D07DA00F00AFB3032625576
:100B00006D1C50EA0102F5D1084302D00098C8B12B
:100B10000EE00021681E05E0235C625C63542254F1
:100B2000401E491C8142F7DBAB46A81B401E0990C2
:100B3000002004F80B000B98099AC0F80880C0E95F
:100B4000002B7CE711264FF0000859E72DE9F04F04
:100B500088460446D21D22F0070191B0D1E9000178
:100B6000CDE90A0102F040FE02460B98C00F01D009
:100B70002D2007E02068810701D52B2002E02021ED
:100B800001EAC000032A099001D0072A05DB0346C9
:100B90004146204600F00AFB0BE12078800601D593
:100BA000E06900E00620B8F1650F814606D0B8F193
:100BB000660F18D0B8F1670F70D131E00020B9F19D
:100BC000110F009001DB112301E009F101030AAAD2
:100BD00001A90CA8FFF7E4FEDDE90C70002609F17D
:100BE0000105834647E001204B4600904FF0004747
:100BF0000AAA01A90CA8FFF7D3FEDDE90DB00C99F4
:100C00005D46002610B909F101000D18B9EB050089
:100C100003D4C0F1FF3609F10105A5EB09002BE073
:100C2000B9F1010F01DA4FF001090020B9F1110FFC
:100C30000090484601DD112300E003460AAA01A9FD
:100C40000CA8FFF7ADFEDDE90C704D46002683468B
:100C5000207800070AD4AB4500DA5D4601A8012DD3
:100C600004DD411911F8011C302907D04F4502DA83
:100C700017F1040F04DA012082460FE06D1EEEE743
:100C8000002F02DCED1B3E4403E0781CA84200DD8F
:100C90007D1CB81B00F1010A4FF0004720780007C7
:100CA00003D4AA4501DB4FF0FF3A0021B7F1004F12
:100CB0000DF143088DF8431024D002202B23002F80
:100CC00001DA7F422D230A21021EA0F1010000DC7F
:100CD0005FB197FBF1FC97FBF1F201FB1C7C17461F
:100CE0000CF1300C08F801CDEEE7A8F1010003701B
:100CF0002188090501D5452100E06521A0F1010801
:100D000000F8011C09980FA9A1EB0807FF1D00B10D
:100D10000120411901EBEA70A1693844081A401E0C
:100D2000A0612078C00602D42046FFF7D9FA0998BE
:100D300028B1D4E901219047206A401C2062207824
:100D4000C00622D52046FFF7CBFA1EE0002E04DBBA
:100D5000B34502DD01A8805D00E03020D4E9012127
:100D60009047206A401C2062761CAAF101005FEACD
:100D7000000A0AD100F0C8F9C0680168405CD4E9F3
:100D800001219047206A401C2062281EA5F1010520
:100D9000DCDC07E0D4E9012118F8010B9047206A58
:100DA000401C2062381EA7F10107F3DC2046FFF744
:100DB000ADFA032011B043E601694A1C02610878CC
:100DC000704700B58FB0CDE901310021059105498B
:100DD0007944CDE9031011466846FFF70DFB0FB0CB
:100DE00000BD0000E5FFFFFF0A6802F8010B0A6082
:100DF000704710B5436913B1AFF3008001E0FFF70E
:100E000096FA012010BD127800F124010A70002228
:100E10004A700122EDE711684FF0FF32E9E7000068
:100E2000074B70B50D467B44FFF7CBFF04462846C1
:100E300000F03AFC10B14FF0FF3070BD204670BD9D
:100E40002F2D00002DE9FF5F15468A460446DFF886
:100E5000AC80F8440027D8E900103E46CDE90010E8
:100E600010E03AF816106A4602A800F021FC411C76
:100E700007D02178890603D5E269391891420DD847
:100E80000744761C2078800602D5E069B84205DD6B
:100E9000AE42E6DB3AF816000028E2D1A069C01B9A
:100EA000A0612046FFF71CFAD8E90010CDE9001038
:100EB000002017E03AF818106A4602A800F0F8FB84
:100EC000B0F1FF3F81460BD000250DF1080B05E086
:100ED000D4E901211BF8050090476D1C4D45F7D35F
:100EE00008F10100B0428046E4DB206A3844206209
:100EF0002046FFF70BFABDE8FF9F0000663D0000AB
:100F00002DE9F0418046D21D22F007020025D2E9EA
:100F10000002F52915A614D0011E72F1000106DAAF
:100F20000023D0EB030063EB020211A608E0D8F81F
:100F300000108B0701D50FA602E0490701D50EA6C8
:100F400001251146002408F1240704E000F0E0F830
:100F500030323A55641C50EA0102F7D12B46324632
:100F600021464046BDE8F041FFF7ACBC0000000060
:100F70002D0000002B0000002000000030B40021F4
:100F800000F1240408E002F00705D208303542EAF7
:100F90004372DB086554491C52EA0305F3D1046827
:100FA000002310A2250707D5A40600D421B1C469E7
:100FB00001230DA2641EC46130BCFFF783BC10B5D1
:100FC000044621461068FFF774FC02462046BDE83F
:100FD00010400023D2E7D21D22F00701D1E90023FF
:100FE000CCE700000000000030000000F0B40D4627
:100FF0000188090502D5214C7C4402E01F4C7C4449
:101000000E34002100F1240608E002F00F07120957
:10101000E75D42EA03721B097754491C52EA030751
:10102000F3D102780023120704D5702D06D009B140
:10103000022311342246F0BCFFF744BC01231034D4
:10104000F8E770B504460D4621461068FFF731FCFD
:10105000024629462046BDE870400023C6E7D21D5F
:1010600022F00703D3E90023C0E70368126843F0C6
:10107000200303600823C3610023B7E7C83B0000D7
:101080003A2800D2303820F02002412A01D3A2F1C0
:101090003700884201D34FF0FF3070470268114497
:1010A0001378016018467047D16005497944516151
:1010B00004497944116200211161114600F0CCB855
:1010C000EDFFFFFFE5000000426842B1016811F842
:1010D000013B23B1521EC0E900121846704701219E
:1010E000C160881E704742685AB1C368016843B93D
:1010F00083688B4205D0491E521CC0E900120020B3
:1011000070474FF0FF30704700487047640400207C
:1011100030B5B0F10A024FEA900E71F100034EEAC9
:10112000817EB0EB0E0061EB91014FEA101E4EEA9A
:10113000017E10EB0E0041EB11114FEA102E4EEA2A
:10114000016E10EB0E0041EB11214FEA104E4EEAFA
:10115000014E10EB0E0041EB1141401841F100012E
:101160004FEAD00040EA41704FEAD10110EB800510
:101170004FEA810444EA907444EB01046D1944EB96
:101180000404521BA3414FF0000348BF0A3200D5AC
:1011900030BD401C41F1000130BD10B5044600F0E7
:1011A000D1FA0068005D00F0010010BD2DE9F041AA
:1011B0001F46044603260168072A01F4006004DB89
:1011C00008B116A505E016A503E008B115A500E0D5
:1011D00015A521F010002060A069C01EA0610FB10C
:1011E000401EA0612046FFF77BF84FB1D4E90121F2
:1011F00038469047206A401C2062C01C206206E0EE
:10120000206AFAE7D4E9012115F8010B9047761E10
:10121000F8D22046FFF77AF8BDE8F0814E414E0043
:101220006E616E00494E4600696E660010B54369F6
:1012300013B1AFF3008001E0FFF704FE012010BD01
:10124000128800F1240182840022C2840122EDE789
:1012500011684FF0FF32E9E72DE9F34F4FF0000A34
:101260000C4656468DB001200C9001F10C000B90FD
:1012700062690B9801219047051E2DD0252D2CD099
:10128000216A8847C0B162690B9801219047216AA1
:1012900088470028F7D16269411E0B98904700E00B
:1012A000761CA1690D988847216A88470028F7D1E4
:1012B000E1690D988847DBE7A1690D988847A84246
:1012C000074601D1761CD3E7E1690D9888477F1C5A
:1012D00002D1BAF1000F6FD06BE162690B98002761
:1012E0003D46394690472A2804D162690B9801216E
:1012F00090470125DFF8D08262690B980121904761
:10130000A0F130010A290AD24745E5DC07EB870145
:1013100000EB4107303FDFD445F01005ECE7E9066C
:1013200001D46FF000476C280AD04C2814D06828EC
:1013300015D06A280DD074281CD07A281AD01DE048
:1013400062690B98012190476C2802D045F0040592
:1013500014E045F002050DE045F020050AE0626961
:101360000B9801219047682802D045F0080505E058
:1013700045F4006562690B9801219047C4E9015763
:1013800065283DD019DC58287AD00CDC452837D0A8
:1013900004DC252826D041289ED131E046282FD0D4
:1013A000472899D12CE05B2877D0612828D0632882
:1013B0007CD0642823D15AE0F6E06F2848D008DCBE
:1013C00066281DD067281BD0692821D06E2816D129
:1013D00027E0702845D0732868D0752847D0782832
:1013E0000DD14DE0A1690D988847252805463FF4A9
:1013F00069AFE1690D9888476D1C3FF46AAFD8E08A
:101400000D9923466A466FF00100AFF30080C5E0F6
:1014100045F0400023464FF000026060A80736D434
:101420003EE0E8077FF447AF2068011D21600068B7
:10143000290501D506701BE7290701D5068017E7A6
:10144000A90703D5F117C0E9006111E706600FE7AE
:1014500045F0400023464FF008026060A80716D40C
:101460001EE040F60E0125EA0100606016E045F03E
:10147000400023464FF00A026060A80707D40FE03F
:1014800045F040006060A80708D5234610220D995A
:101490006FF00100AFF3008080E007E010222346E8
:1014A0000D996FF00100FFF789F877E04FF0000920
:1014B00063284F46C8464B46CB4602D05B2806D031
:1014C00038E0E80601D40120A060012732E062691B
:1014D000D4F80CB00B98012190475E2807D14FF04B
:1014E000010949466269D4F80CB00B98904721690C
:1014F00039B900210A4603AB43F82120491C0829C9
:10150000FADBD8B3216949B308F1010862690B9885
:10151000012190475D28F4D1B9F1000F09D00020D6
:1015200003A951F82020D24341F82020401C08286C
:10153000F7DB03AB2069002820794FEA40701ED00A
:101540005B462246CDF80080CDE901970D99002831
:101550006FF0010020DAAFF300801FE0C11703AA8B
:1015600000EBD1614B1121F01F0102EB8302411A04
:1015700013680120884003431360C7E719E00D9901
:10158000224600286FF00100009702DAAFF30080D6
:1015900004E0FFF7B9F801E0AFF3008000280ADAB1
:1015A000401C06D10C9820B14FF0FF300FB0BDE8C1
:1015B000F08F5046FAE7E90701D10AF1010A064423
:1015C00000200C9054E60000CCCCCC0C2DE9F04768
:1015D000814616468AB0334878440DC88DE80D0020
:1015E00030487844801C03AC0DC884E80D0041F6F7
:1015F0009B300844372190FBF1F290FBF1F5A5F107
:10160000800501FB12041B3C02D56442012000E06E
:101610000020DFF890A080460027FA44AAF1BE0A15
:101620000DE0E00709D03246684607EB47010AEBB8
:10163000810100F05EFB8DE8070064107F1C002C28
:10164000EFD1184F7F44AC3F18E0E80714D007EB08
:1016500004100DF1180A90E80E008AE80E00C06828
:10166000F04201D198190890324606A903A800F06B
:1016700040FB03AB83E807006D10641C002DE4D130
:1016800032466946B8F1000F03A802D000F01DFBF6
:1016900001E000F02EFBC9E90001C9F808200AB0FA
:1016A000BDE8F0878C360000007B00F080007047BA
:1016B00070B516460C46054600F044F8036893F8EA
:1016C0000101012806D0FF2C0FD8185D68B1012058
:1016D0002C7070BDD3F807013246214603F2071380
:1016E00003442846BDE8704018474FF0FF3070BDF6
:1016F00000487047440400207546FFF7F9FFAE46E6
:1017000005006946534620F00700854618B020B50D
:10171000FEF79EFDBDE820404FF000064FF00007A9
:101720004FF000084FF0000B21F00701AC46ACE889
:10173000C009ACE8C009ACE8C009ACE8C0098D46F6
:101740007047000010B5FFF7DFFC001D10BD00BFA3
:101750002527000010B50446AFF300802046BDE801
:101760001040FEF760BD00004FF0013C50F8042B24
:1017700051F8043B9A4221D1A2EB0C03934313EAA4
:10178000CC1317D150F8042B51F8043B9A4215D1D1
:10179000A2EB0C03934313EACC130BD150F8042BA8
:1017A00051F8043B9A4209D1A2EB0C03934313EA8C
:1017B000CC13DBD04FF00000704700BFD01A01BA45
:1017C000B1FA81F101F0180122FA01F0CB40C1F128
:1017D0002001DBB2C0B2C01A2CFA01F3D11A914336
:1017E00011EAC311E6D170475FEA400C08BF91F0DF
:1017F000000F4FEA8C234FEAC12243EA51514FEACE
:101800001C5018BF00F5F0404FEA300018BF41F0FF
:1018100000415FEA6C5C00F02980BCF1FF3F08BF2B
:1018200040F080407047130C06BF12044FF0100CBC
:101830004FF0000C130E04BF12020CF1080C130F32
:1018400004BF12010CF1040C930F04BF92000CF1C1
:10185000020CD30F04BF52000CF1010C11464FF0E3
:101860000002A0F11F00A0EB0C00704711F0004F28
:1018700008BF704731F000413FF4D5AF0B0C06BFF5
:1018800009044FF0100C4FF0000C0B0E04BF0902BE
:101890000CF1080C0B0F04BF09010CF1040C8B0FA9
:1018A00004BF89000CF1020CCB0F04BF49000CF1FE
:1018B000010CCCF12003A0EB0C0022FA03F302FA96
:1018C0000CF241EA030100F10100704720F07F4C67
:1018D00080EA030023F07F47ACEB070303F57C535A
:1018E00000F0004003F1FF032DE980494FEA154B5A
:1018F00009B44FEA144325EA0B4E24EA03480FF2D9
:10190000042606EB132749083E785FEA320203FB00
:101910000667C7F5000707FB06F64FEA54374FEA9C
:10192000D64606F1020607FB066CCCF1005C4FEAD6
:101930001C472CEA074C07FB06F40CFB06F504EBEE
:1019400015464FEA961634BF00204FF000404FEA8C
:10195000D13706FB07FC4FEA1C4C0CFB0BF7D21BE4
:1019600003FB0CF761EB07010CFB0EF7B0EB074034
:1019700072EB17420CFB08F734BFA2EB0742B2EB45
:10198000074261EB17414FEA0C444FEA910706FB0F
:1019900007FC4FEA1C4C0CFB0BF7B0EBC74072EB9B
:1019A000573203FB0CF734BFA2EBC742B2EBC7427E
:1019B00061EB57310CFB0EF7B0EBC70072EB5772BF
:1019C0000CFB08F734BFA2EBC702B2EBC70261EB16
:1019D0005771039F4FEA816141EA921104EBCC04F5
:1019E0004FEAD1374FEA826206FB07FC42EA9012C7
:1019F0004FEA80604FEA1C4C0CFB0BF7D21B03FB39
:101A00000CF761EB07010CFB0EF7B0EB074072EB34
:101A100017420CFB08F734BFA2EB0742B2EB0742B8
:101A200061EB17414FEA8C554FEA910704EB9C2478
:101A300006FB07FC4FEA1C4C0CFB0BF7B0EBC74056
:101A400072EB573203FB0CF734BFA2EBC742B2EB89
:101A5000C74261EB57310CFB0EF7B0EBC70072EBDE
:101A600057720CFB08F734BFA2EBC702B2EBC702F8
:101A700061EB577115EB4C254FEA816141EA9211F8
:101A80004FEA82624FEAD13742EA901206FB07FC26
:101A900044F100044FEA80604FEA1C4C0CFB0BF74A
:101AA000D21B03FB0CF761EB07010CFB0EF7B0EB4D
:101AB000074072EB17420CFB08F734BFA2EB07425A
:101AC000B2EB074261EB174115EB1C154FEA813170
:101AD00041EA92414FEA823242EA90424FEA803034
:101AE0004FEA0C7644F1000448EA03434EEA0B48FF
:101AF0004FF0000EB2EB080C71EB030724BF6246F7
:101B000039464EEB0E0E4FF0000B00185241494182
:101B10004BEB0B0BB2EB080C71EB03077BF1000BEB
:101B200024BF624639464EEB0E0E4FF0000B0018F4
:101B3000524149414BEB0B0BB2EB080C71EB030725
:101B40007BF1000B24BF624639464EEB0E0E51EA84
:101B5000020718BF46F0010616EB0E7655F100029B
:101B600054F1000103D5BDE88901BDE80088BDE856
:101B70008901BDE80048B619524141EB0101A3F1CA
:101B80000103704780807F7E7D7C7B7A79787776D1
:101B900076757473727171706F6E6E6D6C6C6B6A4A
:101BA0006A696868676666656464636362616160E8
:101BB000605F5F5E5E5D5D5C5C5B5B5A5A59595865
:101BC00058575756565555555454535352525251CF
:101BD000515050504F4F4F4E4E4D4D4D4C4C4C4B25
:101BE0004B4B4A4A4A49494948484847474747466C
:101BF00046464545454444444443434343424242A8
:101C000042414141002B26D4770021D01CB54FEA38
:101C1000370703B44FF010004FF010014FF00000F1
:101C20000FBCBDE810400BF1010BBBF1010F08BF69
:101C30005FEA170722BF12F1010211F101014FF013
:101C4000004143F1000300F0004043EA0000704708
:101C5000F9D35708DAE746EA064613F1400F4FEA90
:101C600016461FDD13F1200FDFBF16430A46002181
:101C700020335B42C8D0C3F1200746EA064602FA89
:101C800007F74FEA164646EA0706C3F1200722FA8D
:101C900003F201FA07F721FA03F14FF0000342EAD9
:101CA0000702B1E746EA020646EA06464FEA16464A
:101CB00046EA0106BCBF46EA0646360C4FF0000372
:101CC0004FF000024FF000019EE72DE9C048934617
:101CD00030B491E8380007C831EA400C48BF34EA14
:101CE000430C03D5FFF7F2FDFFF78CFFF0BCBDE816
:101CF00000882DE9C048934630B491E8380007C801
:101D000010F0804F08BF13F0804F03D100F005F8AA
:101D1000FFF778FFF0BCBDE8008820F07F4780EA3D
:101D2000030023F07F4C07EB0C03A3F57C5300F07A
:101D30000040A3F1FE0392F0000F00F0B38095F095
:101D4000000F00F077802DE901494FEA11404FEA7A
:101D5000144621EA004800FB06FC24EA064708FB7B
:101D600006F607FB08F800FB07F718EB06484CEBF4
:101D7000164C4FEA124B18EB07484FEA15464CEB4E
:101D8000174022EA0B4E0BFB06FC25EA06470EFB2A
:101D900006F607FB0EFE0BFB07F71EEB064E4CEBA1
:101DA000164C4FF000061EEB074E4CEB174B18EB92
:101DB0000B0840F1000018EB0E0B58EB000840F147
:101DC00000008F1A4FF000013CBFC943661B14BFCF
:101DD000B5EB040C00213CBFC943F61B4FEA174486
:101DE0004EEA8E0E27EA04454FEA1C4704FB0762C1
:101DF0002CEA074C05FB07F70CFB05F604FB0CFC73
:101E000016EB074642EB174216EB0C4642EB1C4220
:101E10001BEB060658EB0202414146EA9E0601D53D
:101E2000BDE80189B619524141EB0101A3F101035B
:101E3000BDE801894FEA14454FEA114724EA0546F7
:101E400021EA074C05FB07F406FB07F70CFB06F13C
:101E500005FB0CFC11EB074144EB17444FEA12471A
:101E600011EB0C4144EB1C4422EA074C05FB07F242
:101E700006FB07F70CFB06F605FB0CFC16EB07460A
:101E800042EB174216EB0C4642EB1C456A1854F124
:101E9000000148BF7047B619524141EB0101A3F15F
:101EA0000103704795F0000F37D04FEA11424FEA17
:101EB000144721EA024624EA074C02FB07F106FB1D
:101EC00007F70CFB06F402FB0CFC14EB074441EB98
:101ED00017414FEA154714EB0C4441EB1C4125EA2E
:101EE000074C02FB07F506FB07F70CFB06F602FBA7
:101EF0000CFC16EB074645EB174516EB0C4645EB7D
:101F00001C42121951F1000148BF7047B6195241E5
:101F100041EB0101A3F1010370474FEA14454FEA79
:101F2000114724EA054621EA074C05FB07F106FBA9
:101F300007F70CFB06F24FF0000605FB0CFC12EB5A
:101F4000074241EB174112EB0C4251EB1C4148BFD9
:101F50007047921841EB0101A3F1010370470000A3
:101F600008B50121082000F0B9FD4FF48070ADF8EC
:101F7000000010208DF8030003208DF80200694650
:101F8000044800F095F94FF48071024800F024FAFB
:101F900008BD0000000C014010B5044601200649B0
:101FA0000860204601F060FC00200449C1F8A0014F
:101FB000204601F059FC10BDA08121420080214241
:101FC00010B5012000F0AAFD002000F0A7FD10BD13
:101FD00008B501460020009003480090009808448E
:101FE00000900098008808BD006C004008B50022F1
:101FF0000092044A0092009A02440092009A1160F2
:1020000008BD0000006C004000B595B0134903C93D
:10201000CDE9060100F054FE114880781049497856
:102020000F4A12780E4BDB79CDE90132CDE903106E
:102030000B48807900900A48838806AA09A108A85D
:10204000FEF738F920B108A90FA001F029FE02E03F
:102050000EA001F025FE15B000BD00008C4B00085D
:1020600070030020257320253034752D25303275FE
:102070002D2530327520253032753A253032753AAB
:10208000253032750D0A0000257300007420300DD4
:102090000A00000000B587B01848411E831E421D8B
:1020A000CDE90123CDE90310001D05AB06AA14A15B
:1020B00000901948FEF764FAD8B11049891E0598B6
:1020C00088800846807849780C4A921E1278CDE9BB
:1020D000002102900948801EC379827981880FA06F
:1020E000FEF7DCF8012001F0B5FD14A001F0D8FDE9
:1020F00002E014A001F0D4FD07B000BD720300207F
:10210000256320256C752D25752D25752025753A9F
:1021100025753A25750D0A00500000205420253001
:1021200034752D253032752D25303275202530320D
:10213000753A253032753A25303275005420310D0C
:102140000A0000005420300D0A0000001FB50A48A4
:10215000411E821EC31ECDE90021029003AA07A1E1
:102160000B48FEF70DFA18B10AA001F099FD02E044
:102170000AA001F095FD1FBD280000202563202541
:10218000753A25752025753A25750D0A0000000061
:10219000500000205720310D0A0000005720300D5C
:1021A0000A00000000BFFEE708B501F0A9FB012806
:1021B00040D12148807810B11F48007820B91520FF
:1021C0001D4988705B20087010231CA20621002086
:1021D00000F032FC10231AA20621082000F02CFC8B
:1021E000102000901448827802230621102000F06D
:1021F000DFFB102313A20621202000F01DFC10237A
:1022000011A206213D2000F017FC10230CA206218C
:102210004E2000F011FC10200090074802780223A5
:102220000621562000F0C4FB102308A206216620D8
:1022300000F002FC08BD00001A000020740000003D
:102240003D00000043000000206800002500000061
:10225000704700001348007813490978884205D177
:102260001048407810494978884217D00D480078C6
:102270000D498978884205D10A4840780A49C978C9
:1022800088420BD00748007807490979884208D16D
:102290000448407804494979884202D10120034921
:1022A00008707047700300202500002024000020E3
:1022B0002DE9F041024600250026002000230024DD
:1022C000002791F803C00CF00F0591F803C00CF043
:1022D000100CBCF1000F03D091F802C04CEA0505C8
:1022E00091F800C0BCF1000F31D0146800202BE041
:1022F0004FF0010C0CFA00F3B1F800C00CEA030631
:102300009E4220D183004FF00F0C0CFA03F7BC4320
:1023100005FA03FC4CEA040491F803C0BCF1280F51
:1023200006D14FF0010C0CFA00FCC2F814C00AE010
:1023300091F803C0BCF1480F05D14FF0010C0CFA25
:1023400000FCC2F810C0401C0828D1D31460B1F8BA
:1023500000C0BCF1FF0F34DD546800202EE000F116
:10236000080C4FF0010808FA0CF3B1F800C00CEAB1
:1023700003069E4221D183004FF00F0C0CFA03F7A5
:10238000BC4305FA03FC4CEA040491F803C0BCF119
:10239000280F05D100F1080C08FA0CF8C2F81480D7
:1023A00091F803C0BCF1480F07D100F1080C4FF0C1
:1023B000010808FA0CF8C2F81080401C0828CED397
:1023C0005460BDE8F0810246002093680B400BB1D9
:1023D000012000E0002070474161704701617047B3
:1023E00010B54FF4E13001F083FC4FF4165001F0CA
:1023F000CFFC00F08BFD01F019FB00F075F800F048
:10240000A1F801F0EFFB00F081F800F0C9F900F04D
:10241000A7F900F0FFFE00F095F801F0E3FB4FF4A0
:102420007A7001F021FAFFF79BFDC820FFF7B4FD99
:1024300010BD00BFFEE7000010B54FF40051094881
:10244000FFF7CCFF4FF400410648FFF7C7FF4FF4FA
:1024500000410448FFF7C0FF4FF400510148FFF767
:10246000BBFF10BD000C014010B54FF400510748F0
:10247000FFF7B4FF4FF400410448FFF7ADFF4FF4FE
:1024800000410248FFF7AAFF10BD0000000C014008
:1024900010B54FF400510448FFF7A0FF4FF400516E
:1024A0000148FFF799FF10BD000C01400146CA1713
:1024B00001EB92729210A1EB820292B9642091FB1F
:1024C000F0F200FB121050B94FF4C87091FBF0F21B
:1024D00000FB121008B9012070470020FCE7012022
:1024E000FAE70020F8E7000008B50121042000F019
:1024F000F5FA0120ADF8000048208DF80300694688
:102500000148FFF7D5FE08BD0008014008B50121CC
:10251000042000F0E3FA4FF48070ADF800001020C2
:102520008DF8030003208DF8020069460448FFF788
:10253000BFFE4FF480710248FFF750FF08BD000056
:102540000008014008B50121042000F0C7FA10205E
:10255000ADF800008DF8030003208DF802006946F5
:102560000248FFF7A5FE01F03DFB08BD0008014051
:1025700000BFFEE730B59BB0642102A8FEF765F905
:1025800000240425414880784149097888427BD05D
:102590003E4880783E490870102000903B48828871
:1025A00004230021142000F003FA102339A2002193
:1025B0005A2000F041FA102000903448827902231A
:1025C0000021462000F0F4F9102332A20021372028
:1025D00000F032FA102000902C48C279022300212A
:1025E000642000F0E5F910200090284802780223CA
:1025F0001946202000F0DCF9102327A20221302008
:1026000000F01AFA10200090204842780223194660
:10261000382000F0CDF910231FA20221482000F03D
:102620000BFA102000901948827802231946502096
:1026300000F0BEF91948C07818498978CDE9001032
:1026400016484378027816A102A8FDF733FE02A9C6
:1026500019A0FDF723FEE9B2E0B2102302AA00F0B0
:10266000EBF90A4883784278017815A0FDF716FE49
:1026700018480078012805D1002016490870052067
:1026800001F0DEFA01F0BAFA1BB030BD7003002091
:10269000010000202D0000003A000000250000206D
:1026A000572D253032643A2530326420253032648B
:1026B0003A2530326400000025730D0A0000000046
:1026C000CFD6D4DACAB1BCE43A25643A25643A25B7
:1026D000640D0A00240000207047000070B500213E
:1026E00000230F22C47804B3154C246804F4E0647A
:1026F000C4F5E064210AC1F10403CA40447804FA35
:1027000003F184781440214309010E4C0678A15549
:10271000047804F01F050124AC4005786D11AD006C
:1027200005F1E025C5F8004109E0047804F01F0533
:102730000124AC40044D0678761145F8264070BD62
:102740000CED00E000E400E080E100E0024901431C
:10275000024A1160704700000000FA050CED00E02D
:1027600070B5002418E004F1B000002100F081F9F8
:102770000021084600F07DF90021102000F079F9D1
:10278000002505E00121002000F073F9681CC5B2A6
:10279000802DF7DB601CC4B2082CE4DB70BD0000A8
:1027A00008B50121202000F099F90420ADF80000BF
:1027B00010208DF8030003208DF802006946474879
:1027C000FFF776FD04214548FFF708FE01210820A8
:1027D00000F084F94FF43C40ADF8000010208DF873
:1027E000030003208DF8020069463D48FFF760FDB5
:1027F0004FF43C413A48FFF7F1FDC82001F034F8AE
:102800000021AE2000F035F90021084600F031F932
:102810000021102000F02DF90021402000F029F9BE
:102820000021B02000F025F90021812000F021F9DD
:102830000021FF2000F01DF90021A12000F019F96E
:102840000021A62000F015F90021A82000F011F9C0
:1028500000213F2000F00DF90021C82000F009F907
:102860000021D32000F005F90021084600F001F90D
:102870000021D52000F0FDF80021802000F0F9F8BB
:102880000021D82000F0F5F80021052000F0F1F833
:102890000021D92000F0EDF80021F12000F0E9F846
:1028A0000021DA2000F0E5F80021122000F0E1F824
:1028B0000021DB2000F0DDF80021302000F0D9F805
:1028C00000218D2000F0D5F80021142000F0D1F86F
:1028D0000021AF2000F0CDF808BD00000014014039
:1028E000000C014070B504460D4605F1B000002112
:1028F00000F0BFF8102141EA1410002100F0B9F8EF
:1029000004F00F00002100F0B4F870BD2DE9F0478D
:1029100007460E469046994600250024A8F120005F
:10292000C5B27F2F02DD0027B01CC6B2B9F1100F6F
:1029300024D131463846FFF7D5FF002408E004EBE8
:102940000511194A505C012100F093F8601CC4B2D3
:10295000082CF4DB701CC1B23846FFF7C3FF00241B
:1029600009E004EB051108310F4A505C012100F029
:1029700080F8601CC4B2082CF3DB12E03146384604
:10298000FFF7B0FF00240AE005EB4501074A02EB20
:102990004101085D012100F06CF8601CC4B2062CF6
:1029A000F2DBBDE8F08700001E450008F642000893
:1029B0002DE9FF5F074691461E460E9D4FF0000A27
:1029C000002435E0301B401EC1B20A2001F02CF972
:1029D000B9FBF0F00A21B0FBF1F201FB1208BAF1E9
:1029E000000F14D1701EA04211DDB8F1000F0CD100
:1029F000AB4605EBDB71491001FB0471C8B22B46F5
:102A000030220199FFF782FF10E04FF0010AAB4638
:102A100005EBDB71491001FB0471C8B208F130010C
:102A2000CAB22B460199FFF771FF00BF601CC4B208
:102A3000B442C7DBBDE8FF9F2DE9F04104460F46D5
:102A40001546984600260FE0AA5D434639462046C3
:102A5000FFF75CFF04F10800C4B2782C02DD00240B
:102A6000B81CC7B2701CC6B2A85D0028ECD1BDE886
:102A7000F08170B504460D461DB1E0B200F09EFE37
:102A800002E0E0B200F084FE70BD0000014908627F
:102A90007047000000000E427047000029B1064A4E
:102AA000D2690243044BDA6104E0034AD2698243EB
:102AB000014BDA61704700000010024029B1064A5C
:102AC00012690243044B1A6104E0034A126982430B
:102AD000014B1A61704700000010024029B1064AFC
:102AE00092690243044B9A6104E0034A926982436B
:102AF000014B9A61704700000010024029B1064A5C
:102B0000D2680243044BDA6004E0034AD26882438D
:102B1000014BDA6070470000001002400149086074
:102B2000704700004004424230B5002100220024DA
:102B300000232D4D6D6805F00C0121B1042905D04D
:102B4000082923D105E0294D056022E0274D0560C5
:102B50001FE0254D6D6805F47012234D6D6805F476
:102B60008034022505EB92421CB9214D5543056086
:102B70000BE01D4D6D6805F400351DB11C4D55432E
:102B8000056002E0194D5543056002E0174D0560F0
:102B900000BF00BF144D6D6805F0F0010909154D27
:102BA0006B5C0568DD4045600F4D6D6805F4E061C4
:102BB000090A104D6B5C4568DD4085600A4D6D6803
:102BC00005F46051C90A0B4D6B5C4568DD40C5607A
:102BD000054D6D6805F44041890B074D6B5CC56878
:102BE000B5FBF3F5056130BD0010024000127A001C
:102BF00000093D003A0000204A00002010B50146BF
:102C00000022002300204A11012A02D1094C236826
:102C100006E0022A02D1074C236A01E0054C636AF0
:102C200001F01F02012494401C400CB1012000E07F
:102C3000002010BD0010024000210B4A11700A4A0A
:102C4000203A82F82010012802D0042808D103E09D
:102C50000121054A117004E00521034A117000E0CA
:102C600000BF00BF7047000020100240014908600B
:102C7000704700003C0442420249096A0143014A8C
:102C80001162704700100240024909888143014ADD
:102C900011807047042800400348008840F010006D
:102CA000014908807047000004280040034800885C
:102CB0004FF6EF7108400149088070470428004032
:102CC00070B500260024002500F07AF80646384842
:102CD000B6FBF0F437480088A0423CD035490C8060
:102CE00040F2B27510E02846FFF7E0FB40B1B4F5C2
:102CF000B77F02D3A4F5B77404E0681C85B206E080
:102D0000A4F26D14681C85B2B4F5B67FEBD800BF91
:102D100029488580002516E027498888FFF7C6FBEB
:102D200030B1012D04D11D2C01D31D3C09E00CE074
:102D30002248405DA04203D82048405D241A00E0AC
:102D400003E0681C85B21C2CE6D200BF681C1A493F
:102D50008871601CC8711648B6FBF0F100FB116465
:102D60004FF46160B4FBF0F0134908704FF46160F8
:102D7000B4FBF0F100FB11403C21B0FBF1F00E4937
:102D800048704FF46160B4FBF0F100FB11403C214E
:102D9000B0FBF1F201FB1200074988700B46DA79AB
:102DA0009979988800F028F803490872002070BDCE
:102DB000805101002C000020700300209D4B000872
:102DC000002103480188001F008841EA0040704745
:102DD0001C28004001460020064A12880A40D0B252
:102DE000044A121F12880A4012B108B1012000E003
:102DF0000020704704280040F0B503460C461546F5
:102E0000642093FBF0F0C6B2642093FBF0F700FB64
:102E10001730C1B2132E02DD01F16400C1B20846C1
:102E2000CF1701EB977701EBA707BAB2072092FB08
:102E3000F0F700FB172082B25719601EDFF82CC094
:102E40001CF80000384482B2CF1701EB9777BF100F
:102E5000A1EB87071FB9032C01DA501E82B20720AD
:102E600092FBF0F700FB1720C0B2F0BD914B0008B9
:102E70000EB50120FFF7AEFF30B1FFF721FF12487A
:102E8000807808B9FFF7E6F90220FFF7A3FFA0B1A9
:102E90000220FFF7F9FEFFF713FF0B4880780A497D
:102EA0004978094A1278CDE9002102900648C37991
:102EB0008279818805A0FDF7F1F90520FFF7E4FE8E
:102EC00000F016F90EBD000070030020416C617225
:102ED0006D2054696D653A25642D25642D25642087
:102EE00025643A25643A25640A00000029B1064A9F
:102EF00012880243044B1A8004E0034A128882437A
:102F0000014B1A8070470000002800401CB50024C7
:102F100001214FF0C050FFF7C1FD0120FFF7B6FDC2
:102F20000420FFF755F845F25101884240D0FFF7E1
:102F300047F80120FFF780FE04E0601CC4B20A20BD
:102F400000F092FC4120FFF759FE08B9FA2CF4DB9F
:102F5000FA2C01DB01201CBD4FF48070FFF78CFEC2
:102F60000120FFF783FE00F0C3F800F0CBF8012149
:102F70000846FFF7BBFF00F0BBF8FFF78DFE47F6F2
:102F8000FF7000F0A5F800F0B3F80A200C21092327
:102F90001A22CDE90010052140F2E67000F026F873
:102FA000FFF784FE45F251010420FFF71FF807E008
:102FB00000F0A8F801210846FFF798FF00F098F804
:102FC00000F004F8FFF77CFE0020C4E708B50320FA
:102FD0008DF8000000208DF801008DF8020001201E
:102FE0008DF803006846FFF779FB08BD2DE9F05F17
:102FF00006460F4690469946DDE90AAB002440F2AA
:10300000B270864203DB40F63300864202DD0120C7
:10301000BDE8F09F40F2B2750AE02846FFF746FA95
:1030200010B12048044401E01F480444681C85B2E4
:10303000B542F2DB781EC7B2002510E01B48405DA8
:1030400040F2A321484304EBC0143046FFF72EFAA8
:1030500018B1012D01D116480444681C85B2BD4247
:10306000ECDBA8F1010040F2A321484304EBC014BB
:10307000C9EB4910C0EB092004EB0014CAEB0A109D
:1030800004EB80045C4401214FF0C050FFF706FDC3
:103090000120FFF7FBFC204600F00CF800F028F8B8
:1030A0000020B5E70085E2018033E1019D4B000877
:1030B0008051010000B50246FFF7EEFD100C0349F8
:1030C0000880091D0A80FFF7F1FD00BD18280040A7
:1030D00000B50246FFF7E0FDC2F303400349088054
:1030E000091D0A80FFF7E2FD00BD0000082800402E
:1030F00000BF0348008800F020000028F9D0704786
:1031000004280040074800884FF6F7710840054939
:10311000088000BF0348008800F008000028F9D0AC
:103120007047000004280040704710B500F002F816
:1031300010BD00000CB500200190009033480068DD
:1031400040F480303149086000BF3048006800F426
:10315000003000900198401C0190009818B9019827
:10316000B0F5A06FF1D12948006800F4003010B12B
:103170000120009001E0002000900098012843D138
:103180002348006840F010002149086008460068A4
:1031900020F0030008600846006840F00200086064
:1031A0001A4840681949486008464068486008461F
:1031B000406840F4806048600846406820F47C1015
:1031C00048600846406840F4E810486008460068D7
:1031D00040F08070086000BF0C48006800F000708C
:1031E0000028F9D00948406820F0030007494860EA
:1031F0000846406840F00200486000BF034840684D
:1032000000F00C000828F9D10CBD000000100240AD
:103210000020024010B5FFF7A3FA102308A20221F4
:103220001C20FFF709FC102308A204212C20FFF723
:1032300003FC4FF47A7000F017FBFFF791FA10BD12
:1032400044657369676E2062790000006E616E7379
:10325000686F7500042808D14FF0E021096941F03A
:1032600004014FF0E022116107E04FF0E02109690D
:1032700021F004014FF0E022116170477047000017
:1032800010B51348006840F0010011490860084675
:103290004068104908400E494860084600680E49D9
:1032A00008400B4908600846006820F48020086048
:1032B0000846406820F4FE0048604FF41F00886014
:1032C000FFF733FF4FF000600449086010BD0000B5
:1032D000001002400000FFF8FFFFF6FE08ED00E0DE
:1032E00010B540F225511D4800F015F910B31B48E8
:1032F00000F0CCF9C4B21A48008800F40040C8B904
:103300001748008800F4804060B10A2C03D00020E8
:103310001349088020E01248008840F4004010491A
:10332000088019E00D2C06D10D48008840F480403B
:103330000B49088010E00A480088C0F30D000949D5
:103340000C5407480088401C05490880084600883E
:10335000C72801DD0020088010BD000000380140B2
:10336000380000207A03002010B540F2255126488D
:1033700000F0D1F8002845D0234800F087F9C4B206
:103380002248008800F4004000283BD11F480088F4
:1033900000F48040D8B10A2C06D000201B490880D8
:1033A0001BA000F07DFC2DE01848008840F4004090
:1033B0001649088000200988C1F30D011C4A5054A9
:1033C00011461CA0FCF76AFF00F06CF91AE00D2C06
:1033D00006D10E48008840F480400C49088011E076
:1033E0000A480088C0F30D0011490C5407480088B2
:1033F000401C0649088008460088B0F5C87F01DBFC
:103400000020088010BD000000440040180000208B
:10341000D6B8C1EEB8F1CABDB4EDCEF3A3ACC7EBDC
:10342000BCD3BBD8B3B5BBBBD0D00D0A00000000E5
:1034300050000020C0B6D1C0B7A2CBCDD6B8C1EEE7
:10344000A3BA25730000000021B1828942F4005222
:10345000828104E082894DF6FF731A4082817047B1
:1034600010B504462048844209D101218803FFF7A2
:1034700045FB00214FF48040FFF740FB32E01B4842
:10348000844209D101214804FFF718FB00214FF4C1
:103490000030FFF713FB25E01548844209D10121D4
:1034A0008804FFF70BFB00214FF48020FFF706FB99
:1034B00018E01048844209D10121C804FFF7FEFA40
:1034C00000214FF40020FFF7F9FA0BE00A4884428C
:1034D00008D101210805FFF7F1FA00214FF480100F
:1034E000FFF7ECFA10BD0000003801400044004036
:1034F00000480040004C00400050004002460020C0
:10350000B1F5007F00D100BF13880B400BB1012043
:1035100000E00020704770B502460024002300251B
:10352000002040F66A16B14200D100BFC1F3421537
:1035300001F01F03012606FA03F3012D02D196893B
:10354000334006E0022D02D1168A334001E0968A0C
:1035500033400C12012606FA04F41688344013B1E5
:103560000CB1012000E0002070BDF0B5034600243E
:1035700000260025002040F66A17B94200D100BF9E
:103580001846C1F3421401F01F06012707FA06F599
:10359000012C01D10C3004E0022C01D1103000E0EC
:1035A00014301AB107682F43076002E00768AF4381
:1035B0000760F0BD2DE9F04786B005460E460024B1
:1035C000A24600BFA1460027B08900B100BF2F4628
:1035D0002C8A4CF6FF700440F08804432C82AC899E
:1035E0004EF6F3100440B0883189084371890843CE
:1035F0000443AC81AC8A4FF6FF400440B0890443D9
:10360000AC8201A8FFF790FA1F48874202D1DDF88B
:1036100010A001E0DDF80CA0A88900F4004040B142
:103620000AEBCA0000EB0A1031684900B0FBF1F860
:1036300007E00AEBCA0000EB0A1031688900B0FB12
:10364000F1F86420B8FBF0F004012009642101FBCB
:103650001089A88900F4004040B1322000EBC90075
:10366000B0FBF1F000F00700044308E0322000EB6B
:1036700009106421B0FBF1F000F00F0004432C812D
:1036800006B0BDE8F0870000003801400146888898
:10369000C0F308007047C1F308028280704700BF82
:1036A000FEE7000010B517480088C4B216A11948FB
:1036B000FDF79AF818B118A000F0F2FA1CE01548CE
:1036C0000078542809D057280AD0742802D07728C7
:1036D0000DD108E0FEF798FC0DE0FEF7DBFC0AE0F8
:1036E000FEF734FD07E0052000F0AAFA03E00EA083
:1036F00000F0D6FA00BF00BF00200249088005494B
:10370000087010BD18000020434F4E4E45435449E9
:103710004E47000050000020434F4E4E4543544951
:103720004E470D0A00000000C0B6D1C0D2ECB3A3D2
:10373000000000002DE9F04105462C464FF40051F1
:103740001248FEF749FE00261CE0274607F08007D6
:10375000802F04D139020D48FEF740FE04E04FF4FB
:1037600000410A48FEF738FE6006040E4FF400518F
:103770000648FEF733FE4FF400510448FEF72CFED6
:10378000701CC6B2082EE0DBBDE8F081000C0140E1
:1037900010B50446FEF750FE7820FFF7CBFFFEF78A
:1037A00077FE0020FFF7C6FFFEF772FE2046FFF708
:1037B000C1FFFEF76DFEFEF757FE10BD10B50446C3
:1037C000FEF73AFE7820FFF7B5FFFEF761FE4020D6
:1037D000FFF7B0FFFEF75CFE2046FFF7ABFFFEF7FA
:1037E00057FEFEF741FE10BD490050EAC12018BF48
:1037F00004204A0D18BF40F0010040F2FF72B2EB06
:10380000515F08BF40F00200012808BF0520704743
:1038100030380A2801D20120704700207047014645
:1038200000BF704710B56FF00400FFF713FD0A48A2
:1038300000680A49B0FBF1F00949087008460078B1
:1038400000EB4001C1EBC0104FF6FF7101EAC00070
:103850000449088010BD00000400002000127A0016
:103860002E000020300000200146114A12884A43F1
:103870004FF0E0235A6100229A611A46126942F021
:1038800001021A6100BF4FF0E022106900F001024E
:103890001AB100F48032002AF5D04FF0E02212690C
:1038A00022F001024FF0E0231A6100229A61704772
:1038B000300000200146114A12784A434FF0E023BD
:1038C0005A6100229A611A46126942F001021A6195
:1038D00000BF4FF0E022106900F001021AB100F4BD
:1038E0008032002AF5D04FF0E022126922F0010266
:1038F0004FF0E0231A6100229A6170472E000020E9
:103900002DE9FC5F254800F0D1F8012841D123487A
:103910000078234908702148407848701F48807813
:1039200088701E48C078C8701C49C87800F00EFC2A
:1039300083461C4900F048FB81461849887800F00E
:1039400005FC8246494600F0DDFA044600F0AEFA76
:1039500005460E461149487800F0F8FB83461149A8
:1039600000F032FB81460D49087800F0EFFB8246FB
:10397000494600F0C7FA044600F098FA07463A466E
:103980000B4609A0CDE90056FCF788FC0120BDE8F4
:10399000FC9F0DA0FCF782FC0020F8E71F00002030
:1039A0001A00002000002041CAAAB6C8A3BA2533D5
:1039B0002E326620252520CEC2B6C8A3BA25332EC6
:1039C000326620A1E60D0A00B6C1C8A1CEC2CAAABD
:1039D000B6C8B4EDCEF30D0A0000000008B5012111
:1039E0000820FFF77BF82020ADF8000004208DF8B8
:1039F000030069460148FEF75BFC08BD000C01406E
:103A000008B501210820FFF769F82020ADF8000073
:103A100003208DF8020010208DF80300694602484B
:103A2000FEF746FC08BD0000000C014010B5012166
:103A30000820FFF753F80020034908704870887089
:103A4000C870087110BD00001A00002010B500BF3A
:103A500020210C48FEF7B7FC0028F9D02820FFF7FA
:103A600029FF20210748FEF7AEFC012808D100BF3E
:103A700020210448FEF7A7FC0128F9D0012010BD41
:103A80000020FCE7000C014070B50024002508E090
:103A90004FF6FF7000EA4404FFF7D8FF0443681CA8
:103AA00085B2082DF4DB204670BD000070B50446D9
:103AB000002500F033F800F047F850BB00BF00F0DD
:103AC00043F80028FBD000BF00F03EF80128FBD0EF
:103AD000002504E0FFF7D8FF6055681C85B2052D6E
:103AE000F8DB00BF00F030F80028FBD0FFF788FFBC
:103AF00020210948FEF772FC207861780844A178FB
:103B00000844E1780844C6B22079B04201D00020D0
:103B100070BD0120FCE70000000C014010B5FFF76C
:103B20006FFF20210748FEF757FC1320FFF79CFE8C
:103B300020210448FEF752FC1E20FFF7BBFEFFF7D2
:103B40004DFF10BD000C014010B520210148FEF7CB
:103B50003AFC10BD000C014000BF054A128802F07B
:103B60004002002AF9D0C2B2014B1B1D1A807047D7
:103B7000003801400024FFF755FE4FF4A060FEF727
:103B8000E5FDFEF72DFC032000F05AF825E0FEF7D6
:103B9000F1FC601CC4B2642C00D100240520FFF7A6
:103BA00063FE322C09D10D48006808B9012000E0FD
:103BB00000200A490860FEF7F7FA01210848FEF7DD
:103BC00002FC50B90A20FFF74FFE01210448FEF71E
:103BD000FAFB10B9032000F033F8D8E7A001214226
:103BE000000801400020014908607047900121420F
:103BF00001200149086070479001214210B5094831
:103C00000078002807DDFFF7F3FF06480078401E24
:103C10000449087004E0FFF7E5FF0020014908703F
:103C200010BD00000200002010B50246012000E097
:103C300050430B1EA1F10104E1B2F9D110BD000007
:103C400010B50446024804701420FEF7A5F910BD13
:103C5000020000207CB5044654B9FFF753FA002156
:103C60000120FFF743F9FFF743FAFFF729F814E0C3
:103C70000A48807809494978084DCDE900102B7829
:103C8000EA79A979A888FFF7B1F9FFF73BFA012192
:103C90000846FFF72BF9FFF72BFA7CBD70030020D5
:103CA0000FB438B505A800900F48009A0499FCF7A6
:103CB000E3FA002000900C48FCF7A8FD85B2002430
:103CC0000DE000BF40210948FFF718FC0028F9D09B
:103CD0000548015D0548FFF7DEFC601C84B2AC427C
:103CE000EFDB38BC5DF814FBE0010020004400402D
:103CF00010B586B00446012144F20400FEF7EEFE42
:103D00004FF40070ADF8140003208DF81600182051
:103D10008DF8170005A91C48FEF7CAFA4FF4806019
:103D2000ADF8140004208DF8170005A91648FEF719
:103D3000BFFA25208DF8000003208DF801008DF8D2
:103D4000020001208DF803006846FEF7C7FC0194CD
:103D50000020ADF80800ADF80A00ADF80C00ADF891
:103D600010000C20ADF80E0001A90848FFF722FC56
:103D7000012240F225510548FFF7F7FB01210348D6
:103D8000FFF762FB06B010BD00080140003801409B
:103D900010B586B0044601210420FEF79FFE0121E4
:103DA0004804FEF77BFE2448FFF75AFB0420ADF8D9
:103DB000100003208DF8120018208DF8130004A9BC
:103DC0001E48FEF775FA0820ADF8100004208DF8A3
:103DD000130004A91A48FEF76BFA00940020ADF80E
:103DE0000400ADF80600ADF80800ADF80C000C209A
:103DF000ADF80A0069461048FFF7DCFB01210E48C8
:103E0000FFF722FB012240F225510B48FFF7ADFBE3
:103E100026208DF8140002208DF8150003208DF85F
:103E2000160001208DF8170005A8FEF757FC0020AA
:103E30000449088006B010BD00440040000801405D
:103E4000000C01401800002010B500290AD00878A5
:103E5000002807D005487844FDF786FC002801D0EB
:103E6000002010BD0248784410BD00004A0E00003A
:103E7000420E000010B500290AD00878002807D0AB
:103E800005487844FDF770FC002801D0002010BDE3
:103E90000248784410BD00003A0E0000320E0000C7
:103EA0000808A0F500114FEA3101704743004FEABE
:103EB000D30C4FEA3C0C43401FBF40070CF160514C
:103EC00013F0FE4F70471CF0006F03D100200CF080
:103ED000004170470CF0004343EA507010B540EACF
:103EE000CC0000F046F900BF000000924FEA00014C
:103EF000FFF7D6BF4FF000414FF00000A1F50021C1
:103F00007047000090EA010F48BF81F0004100F1C6
:103F10008281421A3CBF801A89184FEAD0524FF072
:103F20007F4C1CEA410FA2EBD15318BF9CEA026FF1
:103F300000F03B804FF0004C4CEA00204CEA01219D
:103F400021FA03FC10EB0C0C1ED202F1FF325FEAE7
:103F50001C2040EBC25038BF70471CF07F0F4FEA67
:103F6000400C18BFBCF17F4F38BF7047C3F120032E
:103F7000994008BF20F00100BCF17F4F38BF704767
:103F8000A0F1C04000F03BB94FEA3C00000A40EB12
:103F9000C25028BF1CF0FF0F4FEA400CE6D018BFFC
:103FA000BCF17F4F38BF7047EAE79CEA026F05D04B
:103FB00010EA5C0F08BF00F00040704710B500F039
:103FC000D8F800BF64FBBE3E4FF47F0C1CEAD01251
:103FD0001EBF1CEAD11392EA0C0F93EA0C0F00F0FB
:103FE000858090EA010F48BF42F4807240F4000CD3
:103FF00041F400002CF07F4120F07F4000B5814269
:10400000A2EB03020FF2081CACEB504EC0F1000013
:104010009EF800E04FEA4E0E00FB0EFC38BF490050
:104020004FEA2C1C02F5FA020CFB0EF34FEACE1EEF
:104030004FEA112C4FEAC1210EEB635E42EB2242A4
:104040000EFB0CFC4FEA1C5300FB03114FEA112C32
:104050004FEA01310EFB0CFC4FEADC4C00FB0C116B
:10406000C14228BF09184CEB03335DF804EB10EB99
:10407000410143EBC250B2F57C0F38BF704729D5E0
:1040800012F0F00F1CBF00F1C04000F0004070477C
:10409000008182838485868788898B8C8D8E8F9121
:1040A0009293959697999A9C9D9FA0A2A3A5A7A845
:1040B000AAACAEB0B2B3B5B7B9BCBEC0C2C5C7C971
:1040C000CCCED1D4D7D9DCDFE2E6E9ECF0F3F7FAD5
:1040D000FE0000004FEA400C0CF1807CBCF17E4FEA
:1040E00028BF7047B0F1C04000F089B890EA010FD6
:1040F0000CEAD11348BF42F48072624538BF634571
:1041000007D213F47F0F16D080EA010000F00040C0
:10411000704710B500F02DF8097EFC3E00F005B8A0
:1041200080EA010000F00040704780EA010000F0E2
:10413000004000F064B812F47F0F04BF02487047DB
:1041400080EA010000F05BB80000C07FB0FA80F3A5
:1041500010FA03F2C3F19D030AD0D90501EB122036
:10416000530638BF704700F1010008BF20F001007E
:1041700070470EF1020E2EF0030E5EF8044B24423F
:1041800004D44FEA4102B2F17F4F11D84FEA400305
:10419000B3F17F4F0CD80ED14FEAD07CB2F17F4FF4
:1041A0000CEB4C0C0CF1020C08BF4CEBD17C04E086
:1041B0004FF0080C01E04FEAD17C0CEB4C0324FAE1
:1041C00003F404F00704B4F1040C06D20EEB840CE3
:1041D000BDE810404CF0010C6047DFE80CF0070828
:1041E00002024FF00040A0F5800010BD08464200DA
:1041F00018BFD2F1807288BF00F0004010BDFF21CF
:1042000041EAD050C005704790EA010F48BF81F0E5
:1042100000413FF57EAE421A04D882F00042A0EB86
:10422000020011444FEAD0524FF07F4C1CEA410F7C
:10423000A2EBD15318BF9CEA026F4AD04FF0004C5A
:104240004CEA00204CEA012121FA03FCB0EB0C0CF3
:104250000FD412F0FE0F36D05FEA4C001DD50012CD
:1042600040EBC25038BF70471CF03F0F18BF70477B
:104270000BE0A2F101025FEA1C2040EBC25038BF04
:1042800070471CF07F0F18BF7047C3F1200399409F
:1042900014BF401E20F00100704780084FEA12232F
:1042A00008BF7047B0FA80FCA2EB0C02CCF1280CDE
:1042B00060FA0CF093EA122F04BF00EBC250704773
:1042C0004FEAC3707047130A5FEADC1008BF7047FB
:1042D000F6E79CEA026F04D010EA5C0F08BF0020EA
:1042E000704710B5FFF745FF40DFF63E81F0004014
:1042F0007047FCF72BBC0000000000000000002FFE
:10430000000000000700070000147F147F14002441
:104310002A7F2A120062640813230036495522506E
:1043200000000503000000001C22410000004122A3
:104330001C000014083E08140008083E080800008D
:1043400000A0600000080808080800006060000085
:10435000002010080402003E5149453E0000427F03
:104360004000004261514946002141454B3100184F
:1043700014127F10002745454539003C4A49493011
:1043800000017109050300364949493600064949CB
:10439000291E0000363600000000563600000008D6
:1043A00014224100001414141414000041221408B3
:1043B00000020151090600324959513E007C121198
:1043C000127C007F49494936003E41414122007F2D
:1043D0004141221C007F49494941007F09090901E7
:1043E000003E4149497A007F0808087F0000417F6C
:1043F0004100002040413F01007F08142241007F1E
:1044000040404040007F020C027F007F0408107F84
:10441000003E4141413E007F09090906003E4151ED
:10442000215E007F091929460046494949310001AA
:10443000017F0101003F4040403F001F2040201FFE
:10444000003F4038403F00631408146300070870C1
:10445000080700615149454300007F414100005574
:104460002A552A55000041417F0000040201020440
:10447000004040404040000001020400002054542D
:104480005478007F4844443800384444442000387D
:104490004444487F00385454541800087E090102EF
:1044A0000018A4A4A47C007F080404780000447DC4
:1044B0004000004080847D00007F10284400000000
:1044C000417F4000007C04180478007C08040478D4
:1044D00000384444443800FC2424241800182424C0
:1044E00018FC007C080404080048545454200004BC
:1044F0003F444020003C4040207C001C2040201CC9
:10450000003C4030403C004428102844001CA0A03F
:10451000A07C004464544C4414141414141400007B
:10452000000000000000000000000000000000008B
:1045300000F8000000000000003330000000001010
:104540000C06100C0600000000000000000040C037
:104550007840C0784000043F04043F040400007029
:1045600088FC08300000001820FF211E0000F00821
:10457000F000E018000000211C031E211E0000F0C6
:104580000888700000001E2123241927211010160E
:104590000E0000000000000000000000000000000D
:1045A00000E018040200000000071820400000028C
:1045B0000418E00000000040201807000000404000
:1045C00080F0804040000202010F01020200000062
:1045D00000F0000000000101011F010101000000C6
:1045E00000000000000080B070000000000000002B
:1045F00000000000000000010101010101010000B4
:10460000000000000000003030000000000000004A
:10461000000080601804006018060100000000E03F
:1046200010080810E000000F102020100F000010EC
:1046300010F8000000000020203F20200000007043
:10464000080808887000003028242221300000303B
:104650000888884830000018202020110E00000033
:10466000C02010F8000000070424243F240000F8B4
:104670000888880808000019212020110E0000E099
:10468000108888180000000F112020110E0000383B
:104690000808C83808000000003F00000000007053
:1046A000880808887000001C222121221C0000E0DC
:1046B00010080810E0000000312222110F00000055
:1046C00000C0C0000000000000303000000000000A
:1046D000008000000000000080600000000000007A
:1046E0008040201008000001020408102000404013
:1046F0004040404040000404040404040400000856
:10470000102040800000002010080402010000700A
:1047100048080808F0000000003036010000C030F2
:10472000C828E810E0000718272423140B00000015
:10473000C038E0000000203C23020227382008F89F
:10474000888888700000203F202020110E00C03093
:10475000080808083800071820202010080008F86A
:1047600008080810E000203F202020100F0008F863
:104770008888E8081000203F20202320180008F82F
:104780008888E8081000203F200003000000C030A7
:1047900008080838000007182020221E020008F828
:1047A00008000008F808203F210101213F200008EF
:1047B00008F8080800000020203F2020000000002A
:1047C0000808F8080800C08080807F00000008F812
:1047D00088C028180800203F20012638200008F84B
:1047E000080000000000203F20202020300008F8B2
:1047F000F800F8F80800203F003F003F200008F8CC
:1048000030C00008F808203F200007183F00E010E3
:1048100008080810E0000F10202020100F0008F8F2
:1048200008080808F000203F210101010000E01005
:1048300008080810E0000F18242438504F0008F82A
:10484000888888887000203F2000030C302000708A
:104850008808080838000038202121221C00180888
:1048600008F8080818000000203F2000000008F8A1
:1048700008000008F808001F202020201F000878EA
:10488000880000C83808000007380E010000F8084A
:1048900000F80008F800033C0700073C0300081874
:1048A00068808068180820302C03032C30200838DA
:1048B000C800C83808000000203F20000000100891
:1048C0000808C838080020382621202018000000D9
:1048D00000FE020202000000007F40404000000C89
:1048E00030C000000000000000010638C0000002D7
:1048F0000202FE000000004040407F000000000077
:104900000402020204000000000000000000000099
:104910000000000000008080808080808080000295
:104920000204000000000000000000000000000081
:104930008080808000000019242222223F2008F875
:10494000008080000000003F112020110E000000B8
:10495000008080800000000E112020201100000047
:1049600000808088F800000E112020103F200000F9
:10497000808080800000001F2222222213000080FD
:1049800080F0888888180020203F20200000000048
:10499000808080808000006B94949493600008F87D
:1049A000008080800000203F210000203F20008008
:1049B0009898000000000020203F20200000000008
:1049C00000809898000000C08080807F000008F878
:1049D000000080808000203F24022D30200000084D
:1049E00008F8000000000020203F20200000808008
:1049F000808080808000203F20003F20003F80801A
:104A0000008080800000203F210000203F20000027
:104A1000808080800000001F202020201F008080D8
:104A200000808000000080FFA12020110E00000007
:104A3000008080808000000E112020A0FF808080F8
:104A400080008080800020203F21200001000000A5
:104A5000808080808000003324242424190000807A
:104A600080E0808000000000001F20200000808087
:104A7000000000808000001F202020103F20808048
:104A800080000080808000010E30080601008080D8
:104A90000080008080800F300C030C300F000080FD
:104AA0008000808080000020312E0E312000808028
:104AB00080000080808080818E7018060100008058
:104AC0008080808080000021302C22213000000076
:104AD0000000807C020200000000003F4040000017
:104AE0000000FF00000000000000FF0000000002C6
:104AF000027C800000000040403F000000000006F3
:104B00000101020204040000000000000000000097
:104B100068656C703A506C656173652061646420EF
:104B200068656C7020696E666F726D6174696F6E16
:104B30000D0A52656D656D62657220746F20656E39
:104B40007465722074686520636F6D6D616E64209A
:104B50006C696E6520616E64207265706C6163655E
:104B600020306420304120696E20746865207365B0
:104B70007474696E67730D0A332E20436F64652069
:104B80004742323331320D0A0000000074203100F8
:104B9000000003030601040602050003051F1C1F95
:104BA0001E1F1E1F1F1E1F1E1F04000008000000E6
:104BB00000000000020001000010000000000000E2
:104BC0000000000030313233343536373839414255
:104BD000434445464030580030313233343536375F
:104BE00038396162636465664030780002400000D5
:104BF000000000A00000000005400000000000C808
:104C0000000000000C4000000000409C000000007C
:104C1000194000000020BCBE00000000344000002D
:104C2000BFC91B8E00000004B5400000504BCFD020
:104C30006607E2CF010000006C4100003E8251AAED
:104C4000DFEEA73401000000D9420000DCB5A0E28D
:104C50003A301F97FFFFFFFFB4450000FD25A0C8B5
:104C6000E9A3C14FFFFFFFFFFF3F000000000080EE
:104C700000000000FF3F0000000000800000000076
:104C8000CC4D000800000020500000002801000862
:104C90001C4E000850000020580A00004401000883
:104CA0001C00000043000000F8FFFFFF0C000000A4
:104CB0000E0000000F0000002E0000001001000098
:104CC00043000000F8FFFFFF0040404040404040EC
:104CD00040404141414141404040404040404040CF
:104CE0004040404040404040400502020202020273
:104CF00002020202020202020220202020202020C2
:104D000020202002020202020202909090909090D5
:104D10001010101010101010101010101010101093
:104D20001010101002020202020288888888888807
:104D300008080808080808080808080808080808F3
:104D400008080808020202024000000000000000FB
:104D50000000000000000000000000000000000053
:104D60000000000000000000000000000000000043
:104D70000000000000000000000000000000000033
:104D80000000000000000000000000000000000023
:104D90000000000000000000000000000000000013
:104DA0000000000000000000000000000000000003
:104DB00000000000000000000000000000000000F3
:104DC00000000000000000000000000000000000E3
:104DD00000A24A04000000000000000001020304D9
:104DE00006070809000000000000000000000000A5
:104DF000000A000E1E183D00000000000000000028
:104E00000000000000000000000001020304010295
:0C4E10000304060708090204060800005D
:0400000508000235B8
:00000001FF
